:100000000C942A000C94830C0C94310C0C945A0C14
:100010000C94610A0C948A0A0C942E090C945709CA
:100020000C9480090C94A9090C94B8070C94E1076E
:100030000C9447000C9447000C9447000C94470024
:100040000C9447000C94180D0C9447000C94470036
:100050000C94470011241FBECFE5D8E0DEBFCDBF12
:1000600011E0A0E6B0E0E6EDF0E302C005900D92ED
:10007000AE37B107D9F715E0AEE7B1E001C01D9288
:10008000A73BB107E1F70E94F7160C9469180C948E
:100090000000EF92FF920F931F937B018C0120E0F1
:1000A00030E040E05FE40E94A90388238CF0C8019F
:1000B000B70120E030E040E05FE40E94C1010E940F
:1000C00067049B01AC01205030404040504806C0BE
:1000D000C801B7010E9467049B01AC01B901CA01C4
:1000E0001F910F91FF90EF900895A0E0B0E0EBE733
:1000F000F0E00C943218DC012B01FA019C91923053
:1001000008F439C1EB018881823008F433C194309E
:1001100069F4843009F02FC111969C91119789815F
:10012000981709F428C1A6E7B0E025C1843009F486
:1001300021C18230A9F4923009F01DC19A01AD01AC
:1001400088E0EA010990AE01E90109929E0181501F
:10015000C1F7E201898111969C918923818308C1AD
:10016000923009F407C112962D903C901397EB0141
:100170008A819B811496AD90BD90CD90DC901797AD
:10018000EC80FD800E811F819101281B390BB90184
:1001900037FF04C066277727621B730B6032710537
:1001A0000CF061C0121613066CF537014801062EDB
:1001B00004C096948794779467940A94D2F721E0C8
:1001C00030E040E050E004C0220F331F441F551FB1
:1001D0006A95D2F721503040404050402E213F21B7
:1001E00040235123211531054105510521F021E01E
:1001F00030E040E050E079018A01E628F72808293C
:1002000019293CC0232BD1F1260E371E350146019A
:10021000062E04C096948794779467940A94D2F734
:1002200021E030E040E050E004C0220F331F441FC3
:10023000551F6A95D2F721503040404050402A2146
:100240003B214C215D21211531054105510521F04E
:1002500021E030E040E050E059016A01A628B728CB
:10026000C828D9280BC0821593052CF01C01AA249C
:10027000BB24650103C0EE24FF24870111969C91E5
:10028000D20111968C91981709F445C0992339F041
:10029000A80197012A193B094C095D0906C0A6016E
:1002A00095012E193F09400B510B57FD08C01182D3
:1002B0003382228224833583468357831DC081E0A5
:1002C00081833382228288279927DC01821B930B4A
:1002D000A40BB50B84839583A683B7830DC0220F2F
:1002E000331F441F551F24833583468357838281E0
:1002F000938101979383828324813581468157813D
:10030000DA01C9010197A109B1098F5F9F4FAF4F72
:10031000BF4328F30BC0918333822282EA0CFB1C7B
:100320000C1D1D1DE482F5820683178383E0808304
:10033000248135814681578157FF1AC0C901AA27F8
:1003400097FDA095BA2F81709070A070B0705695EF
:10035000479537952795822B932BA42BB52B848318
:100360009583A683B7838281938101969383828349
:10037000DF0101C0D201CD01CDB7DEB7E2E10C94BF
:100380004E18A0E2B0E0E7ECF1E00C943E1869836F
:100390007A838B839C832D833E834F835887E9E048
:1003A000EE2EF12CEC0EFD1ECE010196B7010E943F
:1003B00058068E010F5E1F4FCE010596B8010E94B0
:1003C00058068A8991E089278A8BC701B801AE0156
:1003D000475E5F4F0E9475000E948305A096E6E08D
:1003E0000C945A18A0E2B0E0E8EFF1E00C943E184B
:1003F00069837A838B839C832D833E834F835887C5
:10040000F9E0EF2EF12CEC0EFD1ECE010196B701A6
:100410000E9458068E010F5E1F4FCE010596B8014F
:100420000E945806C701B801AE01475E5F4F0E94A7
:1004300075000E948305A096E6E00C945A18A0E28D
:10044000B0E0E5E2F2E00C94321869837A838B83A2
:100450009C832D833E834F835887CE010196BE0136
:10046000675F7F4F0E945806CE010596BE016F5E02
:100470007F4F0E9458069985923088F08989823092
:10048000C8F0943019F4823051F404C0843029F457
:10049000923081F486E790E0C6C0923049F420E0C3
:1004A0009A858A89981321E02A87CE010996BBC0D4
:1004B000823049F420E09A858A89981321E02A8BBA
:1004C000CE014196B0C02D843E844F8458886D88FB
:1004D0007E888F88988CEE24FF248701AA24BB2471
:1004E000650140E050E060E070E0E0E0F0E0C10174
:1004F00081709070892BE9F0E60CF71C081D191D1E
:100500009A01AB012A0D3B1D4C1D5D1D80E090E062
:10051000A0E0B0E0E614F7040805190520F481E036
:1005200090E0A0E0B0E0BA01A901480F591F6A1F8E
:100530007B1FAA0CBB1CCC1CDD1C97FE08C081E0F5
:1005400090E0A0E0B0E0A82AB92ACA2ADB2A3196B6
:10055000E032F10549F0660C771C881C991C569412
:10056000479437942794C3CFFA85EA892B893C892D
:100570008B859C85280F391F2E5F3F4F17C0CA01FE
:1005800081709070892B61F016950795F794E79428
:1005900080E090E0A0E0B0E8E82AF92A0A2B1B2BC3
:1005A00076956795579547952F5F3F4F77FDE7CF36
:1005B0000CC0440F551F661F771F17FD4160EE0CDE
:1005C000FF1C001F111F21503040403090E05907A0
:1005D00090E0690790E4790760F32B8F3C8FDB0193
:1005E000CA018F779070A070B07080349105A1051A
:1005F000B10561F447FD0AC0E114F10401051105DC
:1006000029F0405C5F4F6F4F7F4F40781A8EFE1786
:1006100011F081E08A8F4D8F5E8F6F8F78A383E01A
:10062000898FCE0149960E948305A096E2E10C9441
:100630004E18A8E1B0E0EFE1F3E00C943E186983B6
:100640007A838B839C832D833E834F83588789E0F5
:10065000E82EF12CEC0EFD1ECE010196B7010E9492
:1006600058068E010F5E1F4FCE010596B8010E94FD
:1006700058068985823040F08989823028F0C70188
:10068000B8010E94D00601C081E06896E6E00C94B3
:100690005A18A8E1B0E0EFE4F3E00C943E18698347
:1006A0007A838B839C832D833E834F83588789E095
:1006B000E82EF12CEC0EFD1ECE010196B7010E9432
:1006C00058068E010F5E1F4FCE010596B8010E949D
:1006D00058068985823040F08989823028F0C70128
:1006E000B8010E94D00601C081E06896E6E00C9453
:1006F0005A18A8E1B0E0EFE7F3E00C943E186983E4
:100700007A838B839C832D833E834F83588789E034
:10071000E82EF12CEC0EFD1ECE010196B7010E94D1
:1007200058068E010F5E1F4FCE010596B8010E943C
:1007300058068985823040F08989823028F0C701C7
:10074000B8010E94D00601C08FEF6896E6E00C94D5
:100750005A18A8E1B0E0EFEAF3E00C943E18698380
:100760007A838B839C832D833E834F83588789E0D4
:10077000E82EF12CEC0EFD1ECE010196B7010E9471
:1007800058068E010F5E1F4FCE010596B8010E94DC
:1007900058068985823040F08989823028F0C70167
:1007A000B8010E94D00601C08FEF6896E6E00C9475
:1007B0005A18A8E1B0E0EFEDF3E00C943E1869831D
:1007C0007A838B839C832D833E834F83588789E074
:1007D000E82EF12CEC0EFD1ECE010196B7010E9411
:1007E00058068E010F5E1F4FCE010596B8010E947C
:1007F00058068985823040F08989823028F0C70107
:10080000B8010E94D00601C081E06896E6E00C9431
:100810005A18A8E0B0E0EFE0F4E00C943B189B011C
:10082000AC0183E08983DA01C9018827B7FD83958C
:100830009927AA27BB27B82E211531054105510557
:1008400019F482E089833AC08823A9F0203080E03F
:10085000380780E0480780E8580729F460E070E036
:1008600080E09FEC30C0EE24FF248701E21AF30AF7
:10087000040B150B02C079018A018EE1C82ED12C20
:10088000DC82CB82ED82FE820F831887C801B7011C
:100890000E94340501971816190684F4082E04C026
:1008A000EE0CFF1C001F111F0A94D2F7ED82FE828E
:1008B0000F831887C81AD90ADC82CB82BA82CE018C
:1008C00001960E9483052896E9E00C945718ACE045
:1008D000B0E0EDE6F4E00C94421869837A838B83F0
:1008E0009C83CE010196BE016B5F7F4F0E9458062C
:1008F0008D81823061F1823050F1843021F48E811B
:10090000882351F12EC02F81388537FD20C06E819C
:100910002F3131051CF06623F9F023C08EE190E001
:10092000821B930B29853A854B855C8504C05695BF
:100930004795379527958A95D2F76623B1F050955C
:100940004095309521953F4F4F4F5F4F0EC020E0AF
:1009500030E040E050E009C02FEF3FEF4FEF5FE79E
:1009600004C020E030E040E050E8B901CA012C9614
:10097000E2E00C945E18A8E0B0E0E1ECF4E00C9446
:100980003A187B018C01611571058105910519F4F7
:1009900082E0898360C083E089838EE1C82ED12CF8
:1009A000DC82CB82ED82FE820F831887C801B701FB
:1009B0000E943405FC013197F7FF3BC02227332703
:1009C0002E1B3F0B57016801022E04C0D694C7941A
:1009D000B794A7940A94D2F740E050E060E070E04A
:1009E00081E090E0A0E0B0E004C0880F991FAA1F4A
:1009F000BB1F2A95D2F70197A109B1098E219F212A
:100A0000A023B1230097A105B10521F041E050E0FA
:100A100060E070E04A295B296C297D294D835E8363
:100A20006F8378878EE190E08E1B9F0B9C838B8376
:100A300012C0309781F00E2E04C0EE0CFF1C001F78
:100A4000111F0A94D2F7ED82FE820F831887CE1A07
:100A5000DF0ADC82CB821A82CE0101960E948305D6
:100A60002896EAE00C945618EF92FF920F931F938A
:100A70007B018C0180E0E81680E0F80681E0080741
:100A800080E0180788F48FEFE816F10401051105DE
:100A900031F028F088E090E0A0E0B0E017C080E0FE
:100AA00090E0A0E0B0E012C080E0E81680E0F80638
:100AB00080E0080781E0180728F088E190E0A0E0D6
:100AC000B0E004C080E190E0A0E0B0E020E230E0DF
:100AD00040E050E0281B390B4A0B5B0B04C0169515
:100AE0000795F794E7948A95D2F7F701E258FF4FFC
:100AF0008081281B310941095109C9011F910F91BA
:100B0000FF90EF900895DF92EF92FF920F931F9363
:100B1000FC01E480F58006811781D18080818230DC
:100B200048F480E090E0A0E1B0E0E82AF92A0A2B3E
:100B30001B2BA5C0843009F49FC0823021F4EE2421
:100B4000FF24870105C0E114F1040105110519F422
:100B5000E0E0F0E096C0628173819FEF6238790730
:100B60000CF05BC022E83FEF261B370B2A31310522
:100B70002CF020E030E040E050E02AC0B801A701AE
:100B8000022E04C076956795579547950A94D2F73B
:100B900081E090E0A0E0B0E004C0880F991FAA1F98
:100BA000BB1F2A95D2F70197A109B1098E219F2178
:100BB000A023B1230097A105B10521F081E090E0C9
:100BC000A0E0B0E09A01AB01282B392B4A2B5B2B1C
:100BD000DA01C9018F779070A070B07080349105F0
:100BE000A105B10539F427FF09C0205C3F4F4F4FE5
:100BF0005F4F04C0215C3F4F4F4F5F4FE0E0F0E09C
:100C00002030A0E03A07A0E04A07A0E45A0710F01D
:100C1000E1E0F0E079018A0127C06038710564F5F0
:100C2000FB01E158FF4FD801C7018F779070A0708A
:100C3000B07080349105A105B10539F4E7FE0DC00F
:100C400080E490E0A0E0B0E004C08FE390E0A0E09A
:100C5000B0E0E80EF91E0A1F1B1F17FF05C016950E
:100C60000795F794E794319687E016950795F794E2
:100C7000E7948A95D1F705C0EE24FF248701EFEFB2
:100C8000F0E06E2F679566276795902F9F77D79432
:100C9000DD24D7948E2F8695492F462B582F5D291A
:100CA000B701CA011F910F91FF90EF90DF90089557
:100CB000FC01DB01408151812281622F6F7770E05E
:100CC000221F2227221F9381892F880F822B282FF2
:100CD00030E0991F9927991F11969C931197211520
:100CE0003105A9F5411551056105710511F482E041
:100CF00037C082E89FEF13969C938E9312979A01C8
:100D0000AB0167E0220F331F441F551F6A95D1F7CF
:100D100083E08C930DC0220F331F441F551F129682
:100D20008D919C911397019713969C938E93129794
:100D3000203080E0380780E0480780E4580758F307
:100D400014962D933D934D935C93179708952F3FE1
:100D5000310579F4411551056105710519F484E0F7
:100D60008C93089564FF03C081E08C9312C01C92A1
:100D700010C02F57304013963C932E93129783E068
:100D80008C9387E0440F551F661F771F8A95D1F714
:100D9000706414964D935D936D937C9317970895AB
:100DA0001F93DC01FB019C91923008F447C08081C5
:100DB000823008F443C0943051F411961C91843071
:100DC00099F58181682F70E0611B71093FC0843003
:100DD00021F0923031F48230B9F18181882389F198
:100DE0002DC011961C9111978230F1F08181181756
:100DF000D9F412962D913C91139782819381821799
:100E0000930794F028173907BCF014968D919D91A3
:100E10000D90BC91A02D24813581468157812817E2
:100E200039074A075B0718F4112341F00AC08217FB
:100E30009307A407B50740F4112319F061E070E0AF
:100E400005C06FEF7FEF02C060E070E0CB011F9143
:100E50000895813051F0813028F0823061F0833084
:100E600099F40CC083B78F7B02C083B7806483BFC3
:100E700083B7877F08C083B78F7B02C083B7806446
:100E800083BF83B7886083BF6330E1F0643028F4A8
:100E9000613079F0623098F409C06530F9F065305E
:100EA000D0F0663009F1673059F521C083B78E7FE5
:100EB00002C083B7816083BF83B78D7F08C083B7CB
:100EC0008E7F02C083B7816083BF83B7826083BF98
:100ED00083B78B7F14C083B78E7F02C083B78160D6
:100EE00083BF83B78D7F08C083B78E7F02C083B76F
:100EF000816083BF83B7826083BF83B7846083BF11
:100F000012BE089582BF08958CBF089589B781608D
:100F100089BF089589B78E7F89BF089589B7826098
:100F200089BF089589B78D7F89BF089590937F0108
:100F300080937E01089590938101809380010895AC
:100F400088B7816088BF08B600FEFDCF089588B7D6
:100F5000826088BF08B601FEFDCF089583B78E7FFB
:100F600083BF83B78D7F83BF83B78B7F83BF089594
:100F70001F920F920FB60F9211242F933F934F930E
:100F80005F936F937F938F939F93AF93BF93EF93F1
:100F9000FF93E0918001F0918101309709F009956C
:100FA000FF91EF91BF91AF919F918F917F916F9141
:100FB0005F914F913F912F910F900FBE0F901F9017
:100FC00018951F920F920FB60F9211242F933F93F3
:100FD0004F935F936F937F938F939F93AF93BF9341
:100FE000EF93FF93E0917E01F0917F01309709F03C
:100FF0000995FF91EF91BF91AF919F918F917F9153
:101000006F915F914F913F912F910F900FBE0F9075
:101010001F901895873009F446C0883070F48330EB
:1010200081F1843028F4813001F1823038F51AC022
:10103000853081F18630A0F52AC08B3009F44EC08E
:101040008C3030F48930F1F18A3008F044C037C078
:101050008D3009F44FC08D3008F446C08E3009F051
:1010600058C04BC08FB58E7F02C08FB581608FBDD9
:101070008FB58D7F8FBD8EB5877F1DC08FB58E7F5D
:1010800002C08FB581608FBD8FB58260F3CF8FB501
:101090008E7F02C08FB581608FBD8FB58D7F08C0F8
:1010A0008FB58E7F02C08FB581608FBD8FB5826096
:1010B0008FBD8EB588608EBD8EB58F7E29C08FB5F1
:1010C0008E7F02C08FB581608FBD8FB58D7F8FBD44
:1010D0008EB5877F1AC08FB58E7F02C08FB58160B5
:1010E0008FBD8FB58260F3CF8FB58E7F8FBD8FB5EB
:1010F0008D7F08C08FB58E7F02C08FB581608FBD98
:101100008FB582608FBD8EB588608EBD8EB58061D3
:101110008EBD6330F9F0643028F4613079F06230CC
:10112000B0F409C06530F9F06530D0F0663009F1EF
:10113000673059F521C08EB58E7F02C08EB58160B3
:101140008EBD8EB58D7F8EBD8EB58B7F1DC08EB54D
:101150008E7F02C08EB581608EBD8EB58260F3CF6A
:101160008EB58E7F02C08EB581608EBD8EB58D7FAF
:1011700008C08EB58E7F02C08EB581608EBD8EB5E3
:1011800082608EBD8EB584608EBD1CBC1DBC089572
:101190008CBD9DBD08958ABD9BBD089588BD99BD38
:1011A000089586BD97BD089589B7846089BF089565
:1011B00089B78B7F89BF089589B7806189BF0895FA
:1011C00089B78F7E89BF089589B7886089BF0895E0
:1011D00089B7877F89BF089589B7806289BF0895DD
:1011E00089B78F7D89BF0895909383018093820191
:1011F00008959093850180938401089590938701C9
:1012000080938601089590938901809388010895C1
:1012100088B7846088BF08B602FEFDCF089588B7FE
:10122000806188BF08B604FEFDCF089588B7886046
:1012300088BF08B603FEFDCF089588B7806288BFD7
:1012400008B605FEFDCF08958EB58E7F8EBD8EB596
:101250008D7F8EBD8EB58B7F8EBD08951F920F92B0
:101260000FB60F9211242F933F934F935F936F9379
:101270007F938F939F93AF93BF93EF93FF93E091EF
:101280008801F0918901309709F00995FF91EF915C
:10129000BF91AF919F918F917F916F915F914F918E
:1012A0003F912F910F900FBE0F901F9018951F9296
:1012B0000F920FB60F9211242F933F934F935F938A
:1012C0006F937F938F939F93AF93BF93EF93FF930E
:1012D000E0918401F0918501309709F00995FF9123
:1012E000EF91BF91AF919F918F917F916F915F919E
:1012F0004F913F912F910F900FBE0F901F90189517
:101300001F920F920FB60F9211242F933F934F937A
:101310005F936F937F938F939F93AF93BF93EF935D
:10132000FF93E0918601F0918701309709F00995CC
:10133000FF91EF91BF91AF919F918F917F916F91AD
:101340005F914F913F912F910F900FBE0F901F9083
:1013500018951F920F920FB60F9211242F933F935F
:101360004F935F936F937F938F939F93AF93BF93AD
:10137000EF93FF93E0918201F0918301309709F0A0
:101380000995FF91EF91BF91AF919F918F917F91BF
:101390006F915F914F913F912F910F900FBE0F90E2
:1013A0001F901895813051F0813028F0823061F023
:1013B000833099F40CC085B58F7B02C085B58064FD
:1013C00085BD85B5877F08C085B58F7B02C085B593
:1013D000806485BD85B5886085BD6330E1F064308B
:1013E00028F4613079F0623098F409C06530F9F082
:1013F0006530D0F0663009F1673059F521C085B508
:101400008E7F02C085B5816085BD85B58D7F08C0A2
:1014100085B58E7F02C085B5816085BD85B582604A
:1014200085BD85B58B7F14C085B58E7F02C085B51F
:10143000816085BD85B58D7F08C085B58E7F02C072
:1014400085B5816085BD85B5826085BD85B58460C3
:1014500085BD14BC089584BD089583BD089589B7E2
:10146000806489BF089589B78F7B89BF089589B744
:10147000806889BF089589B78F7789BF0895909351
:101480008B0180938A01089590938D0180938C0144
:10149000089588B7806488BF08B606FEFDCF08951A
:1014A00088B7806888BF08B607FEFDCF089585B568
:1014B0008E7F85BD85B58D7F85BD85B58B7F85BDCF
:1014C00008951F920F920FB60F9211242F933F93FE
:1014D0004F935F936F937F938F939F93AF93BF933C
:1014E000EF93FF93E0918C01F0918D01309709F01B
:1014F0000995FF91EF91BF91AF919F918F917F914E
:101500006F915F914F913F912F910F900FBE0F9070
:101510001F9018951F920F920FB60F9211242F93C0
:101520003F934F935F936F937F938F939F93AF936B
:10153000BF93EF93FF93E0918A01F0918B01309775
:1015400009F00995FF91EF91BF91AF919F918F9114
:101550007F916F915F914F913F912F910F900FBEAF
:101560000F901F90189598B721E030E002C0220F2D
:10157000331F8A95E2F7922B98BF08951F93182F77
:1015800083E067E041E00E94A80D113051F0113076
:1015900028F0123061F0133099F40CC085B58F7EBD
:1015A00002C085B5806185BD85B58F7D08C085B5D4
:1015B0008F7E02C085B5806185BD85B5806285BDA1
:1015C0001F9108951F93182F83E064E041E00E946B
:1015D000A80D113051F0113028F0123061F01330A5
:1015E00099F40CC08FB58F7E02C08FB580618FBD1E
:1015F0008FB58F7D08C08FB58F7E02C08FB580619B
:101600008FBD8FB580628FBD1F9108951F93182FD6
:1016100083E065E041E00E94A80D113051F01130E7
:1016200028F0123061F0133099F40CC08FB58F7B25
:1016300002C08FB580648FBD8FB58F7708C08FB51E
:101640008F7B02C08FB580648FBD8FB580688FBDE2
:101650001F9108951F93182F81E063E041E00E94DD
:10166000A80D113051F0113028F0123061F0133014
:1016700099F40CC083B78F7E02C083B7806183BFAB
:1016800083B78F7D08C083B78F7E02C083B7806128
:1016900083BF83B7806283BF1F9108958093A901A0
:1016A0006093A70141E00E94A80D08951F938091C7
:1016B000A801813031F464E040E00E941D0E8FEFFC
:1016C0008FB9779BFECF1FB18091A801813021F4A3
:1016D00064E041E00E941D0E812F1F9108951F9329
:1016E000182F8091A801813021F464E040E00E942D
:1016F0001D0E1FB9779BFECF8091A801813021F488
:1017000064E041E00E941D0E1F9108956E9A80933F
:10171000A8018823B1F46C9881E067E040E00E9462
:10172000A80D81E065E040E00E94A80D81E066E040
:1017300041E00E94A80D81E064E040E00E94A80D15
:1017400008958130C9F46C9A67E041E00E94A80DC9
:1017500081E065E041E00E94A80D81E066E040E0A4
:101760000E94A80D81E064E041E00E94A80D81E0A4
:1017700064E041E00E941D0E08958BB780648BBF2A
:1017800008958BB78F7B8BBF08958BB780688BBF15
:1017900008958BB78F778BBF08958BB780628BBF0F
:1017A00008958BB78F7D8BBF0895813051F08130C4
:1017B00028F0823061F08330B9F410C085B78E7F95
:1017C00002C085B7816085BF85B78D7F05C085B7AD
:1017D0008E7F85BF85B7826085BF089585B781609C
:1017E00085BF85B7826085BF0895813051F0813013
:1017F00028F0823061F08330B9F410C085B78B7F58
:1018000002C085B7846085BF85B7877F05C085B76F
:101810008B7F85BF85B7886085BF089585B7846055
:1018200085BF85B7886085BF0895882319F081300A
:1018300041F404C084B78F7B84BF089584B780646B
:1018400084BF089590938F0180938E0108959093A3
:101850009101809390010895909393018093920158
:1018600008951F920F920FB60F9211242F933F935A
:101870004F935F936F937F938F939F93AF93BF9398
:10188000EF93FF93E0919001F0919101309709F06F
:101890000995FF91EF91BF91AF919F918F917F91AA
:1018A0006F915F914F913F912F910F900FBE0F90CD
:1018B0001F9018951F920F920FB60F9211242F931D
:1018C0003F934F935F936F937F938F939F93AF93C8
:1018D000BF93EF93FF93E0919201F09193013097C2
:1018E00009F00995FF91EF91BF91AF919F918F9171
:1018F0007F916F915F914F913F912F910F900FBE0C
:101900000F901F9018951F920F920FB60F921124EF
:101910002F933F934F935F936F937F938F939F93F7
:10192000AF93BF93EF93FF930E94B40CE0918E01AD
:10193000F0918F01309709F009950E94B00CFF914A
:10194000EF91BF91AF919F918F917F916F915F9137
:101950004F913F912F910F900FBE0F901F901895B0
:101960008FB780688FBF08958FB78F778FBF089527
:10197000E39A0895E199FECF8EBB9FBB6DBBE29ABF
:10198000E19A0895E199FECF8EBB9FBBE09A8DB39B
:1019900008958EBB9FBB0895CF92DF92EF92FF9286
:1019A0000F931F93CF93DF936C017B018A01C0E0FB
:1019B000D0E00AC0F701EC0FFD1FCE018C0D9D1D7C
:1019C00060810E94BA0C2196C017D10798F3DF916D
:1019D000CF911F910F91FF90EF90DF90CF900895DE
:1019E000CF92DF92EF92FF920F931F93CF93DF93EB
:1019F0006C018B017A01C0E0D0E00AC0CE018C0DF1
:101A00009D1D0E94C20CF801EC0FFD1F80832196E2
:101A1000CE15DF0598F30E0D1F1DF8011082DF9122
:101A2000CF911F910F91FF90EF90DF90CF9008958D
:101A30001F920F920FB60F9211248F939F93EF93E3
:101A4000FF938091960190919701892B59F1809194
:101A50009401909195018EBB9FBBE0919401F09110
:101A60009501E655FE4F80818DBBE29AE19A809107
:101A70009401909195010196909395018093940122
:101A8000809196019091970101979093970180938F
:101A900096018091960190919701892B21F41092E3
:101AA000980101C0E398FF91EF919F918F910F9062
:101AB0000FBE0F901F901895813049F0813028F0AB
:101AC000823039F0833041F406C06ABB089567BBA9
:101AD000089564BB089561BB0895813049F0813059
:101AE00028F0823039F0833041F406C06BBB089592
:101AF00068BB089565BB089562BB0895813059F0B5
:101B0000813028F0823059F0833081F40CC08BB3DF
:101B100080958BBB089588B3809588BB089585B365
:101B2000809585BB089582B3809582BB08958130EE
:101B300049F0813028F0823039F0833041F406C01A
:101B40008BB3089588B3089585B3089582B308953B
:101B5000442321F0413009F06FC03AC08130A1F038
:101B6000813030F08230E1F0833009F065C024C06C
:101B70002AB381E090E002C0880F991F6A95E2F7CE
:101B8000809582238ABB089527B381E090E002C04C
:101B9000880F991F6A95E2F78095822387BB089585
:101BA00024B381E090E002C0880F991F6A95E2F7A4
:101BB0008095822384BB089521B381E090E002C028
:101BC000880F991F6A95E2F78095822381BB08955B
:101BD000813091F0813028F08230C9F0833061F596
:101BE00021C02AB381E090E002C0880F991F6A9556
:101BF000E2F7282B2ABB089527B381E090E002C0CA
:101C0000880F991F6A95E2F7282B27BB089524B304
:101C100081E090E002C0880F991F6A95E2F7282BB7
:101C200024BB089521B381E090E002C0880F991F82
:101C30006A95E2F7282B21BB0895413009F440C092
:101C4000413020F0423009F0A2C06DC08130A1F0D7
:101C5000813030F08230E1F0833009F098C024C048
:101C60002BB381E090E002C0880F991F6A95E2F7DC
:101C7000809582238BBB089528B381E090E002C059
:101C8000880F991F6A95E2F78095822388BB089593
:101C900025B381E090E002C0880F991F6A95E2F7B2
:101CA0008095822385BB089522B381E090E002C035
:101CB000880F991F6A95E2F78095822382BB089569
:101CC000813091F0813030F08230C1F0833009F002
:101CD0005EC01EC02BB381E090E002C0880F991F48
:101CE0006A95E2F7282B31C028B381E090E002C06A
:101CF000880F991F6A95E2F7282B32C025B381E03F
:101D000090E002C0880F991F6A95E2F7282B33C034
:101D100022B381E090E002C0880F991F6A95E2F734
:101D2000282B22BB0895813091F0813028F0823039
:101D3000C9F0833061F521C02BB381E090E002C08F
:101D4000880F991F6A95E2F728272BBB089528B3BF
:101D500081E090E002C0880F991F6A95E2F728277A
:101D600028BB089525B381E090E002C0880F991F39
:101D70006A95E2F7282725BB089522B381E090E019
:101D800002C0880F991F6A95E2F7282722BB0895A1
:101D9000813049F0813028F0823039F08330B1F45D
:101DA0000DC089B303C086B301C083B390E002C005
:101DB000959587956A95E2F78170089580B390E0D4
:101DC00002C0959587956A95E2F7817008958130F4
:101DD00091F0813028F08230C9F0833061F521C064
:101DE0002BB381E090E002C0880F991F6A95E2F75B
:101DF000282B2BBB089528B381E090E002C0880F08
:101E0000991F6A95E2F7282B28BB089525B381E036
:101E100090E002C0880F991F6A95E2F7282B25BB36
:101E2000089522B381E090E002C0880F991F6A955F
:101E3000E2F7282B22BB08956F927F928F929F9298
:101E4000AF92BF92CF92DF92EF92FF920F931F93C8
:101E50005B016C010E946704882777FD8095982FAD
:101E60000E9409047B018C01C601B501A8019701FC
:101E70000E94C1013B014C0120E030E040E050E015
:101E80000E94790318161CF086017501BDC0C401BB
:101E9000B30120E030E04AE754E40E941F020E94B0
:101EA00049000E941C10B0C0C801B70120E030E01A
:101EB00040E85FE30E941903882391F489EF0E94B0
:101EC0002D0A82E064E00E94D2090F2EF0E0EF2E8E
:101ED000F0E0FF2EF0E00F2FF0E01F2FF02D0AC0F2
:101EE000C801B70120E030E040E050E40E94D9038F
:101EF0001816ECF0C801B70120E030E04AE756E4DC
:101F00000E941F0220E030E040E05CE30E941F02DC
:101F100020E030E040E85FE30E94C1010E944900F8
:101F2000DC01CB010E942D0A82E065E026C0C801D9
:101F3000B70120E030E040E850E40E94D9031816D1
:101F40004CF1C801B70120E030E04AE756E40E94B6
:101F50001F0220E030E040E85BE30E941F0220E027
:101F600030E040E85FE30E94C1010E944900DC01CB
:101F7000CB010E942D0A82E066E00E94D2090F2E5A
:101F8000F0E0EF2EF0E0FF2EF0E00F2FF0E01F2F3B
:101F9000F02D38C0C801B70120E030E040E851E43E
:101FA0000E94D9031816ECF0C801B70120E030E018
:101FB0004AE756E40E941F0220E030E040E85AE37E
:101FC0000E941F0220E030E040E85FE30E94C10170
:101FD0000E944900DC01CB010E942D0A82E067E0EB
:101FE000CCCF89EF0E942D0A82E067E00E94D209DF
:101FF000C801B70120E030E040E851E40E94C1018F
:102000007B018C010E94500AC801B70120E030E03A
:1020100040E050E00E94790318160CF445CF1F9160
:102020000F91FF90EF90DF90CF90BF90AF909F9077
:102030008F907F906F900895EF92FF920F931F9370
:102040007B018C0181E1E816F1040105110560F4C2
:1020500082E061E00E94D20924E0EE0CFF1C001F28
:10206000111F2A95D1F736C081E8E816F104010561
:10207000110550F482E062E00E94D2098E2D880F93
:1020800081500E942D0A40C081E0E81682E0F806E7
:1020900080E0080780E0180748F482E063E00E94CF
:1020A000D20916950795F794E79414C081E0E816D5
:1020B00084E0F80680E0080780E0180768F482E012
:1020C00064E00E94D20982E016950795F794E794A0
:1020D0008A95D1F78E2DD4CFC801B70128EE33E011
:1020E00040E050E00E941018CA01B9010E94BB04F0
:1020F0000E941C0FC801B70128EE33E040E050E019
:102100000E9410180E941C100E94500A1F910F91EB
:10211000FF90EF90089520E030E04AE754E40E94F9
:102120001F020E941C0F0895EF92FF920F931F93BE
:102130007B018C01A2C081E0E81680E1F80680E016
:10214000080780E0180770F4B4E0EE0CFF1C001FD5
:10215000111FBA95D1F7C70101970E94CB0884E0FF
:1021600061E01DC091E0E91690E8F90690E00907EA
:1021700090E01907D0F4A4E0EE0CFF1C001F111F23
:10218000AA95D1F7F3E016950795F794E794FA9599
:10219000D1F7C70101970E94CB0884E062E00E945A
:1021A0000A08EE24FF24870166C0A1E0EA16A0E039
:1021B000FA06A4E00A07A0E01A07A8F4E4E0EE0C8F
:1021C000FF1C001F111FEA95D1F776E016950795C1
:1021D000F794E7947A95D1F7C70101970E94CB084D
:1021E00084E063E0DCCFB1E0EB16B0E0FB06B0E1E9
:1021F0000B07B0E01B0788F464E0EE0CFF1C001F27
:10220000111F6A95D1F7BB27A12F902F8F2D019712
:102210000E94CB0884E064E0C2CF81E0E81680E051
:10222000F80680E4080780E01807A8F444E0EE0C04
:10223000FF1C001F111F4A95D1F73AE0169507952C
:10224000F794E7943A95D1F7C70101970E94CB081C
:1022500084E065E0A4CF8FEF9FEF0E94CB0884E07D
:1022600065E00E940A0880E090E0A0ECBFEFE80E75
:10227000F91E0A1F1B1F0E940F09E114F10401053A
:10228000110509F058CF1F910F91FF90EF9008951D
:1022900020E034E244E759E40E941F020E94490012
:1022A0000E949410089520E030E04AE754E40E9430
:1022B0001F020E9449000E94941008956F927F921D
:1022C0008F929F92AF92BF92CF92DF92EF92FF9246
:1022D0000F931F937B018C010E946704882777FD71
:1022E0008095982F0E9409043B014C01C801B70159
:1022F000A40193010E94C1015B016C0120E030E068
:1023000040E050E00E94790318160CF08CC0C60122
:10231000B50120E030E04AE754E40E941F020E9429
:1023200049000E942B12840173017DC0C801B701CE
:1023300020E030E040E85FE30E941903882331F495
:1023400089EF0E94840782E063E026C0C801B701DC
:1023500020E030E040E850E40E94D90318164CF128
:10236000C801B70120E030E04AE756E40E941F02AE
:1023700020E030E040E85BE30E941F0220E030E014
:1023800040E85FE30E94C1010E944900DC01CB01EB
:102390000E94840782E064E00E9429070F2EF0E08B
:1023A000EF2EF0E0FF2EF0E00F2FF0E01F2FF02DCA
:1023B00038C0C801B70120E030E040E851E40E9495
:1023C000D9031816ECF0C801B70120E030E04AE765
:1023D00056E40E941F0220E030E040E85AE30E94E9
:1023E0001F0220E030E040E85FE30E94C1010E944C
:1023F0004900DC01CB010E94840782E065E0CCCF7C
:1024000089EF0E94840782E065E00E942907C801E5
:10241000B70120E030E040E851E40E94C1017B01B7
:102420008C010E94A707C801B70120E030E040E01E
:1024300050E00E94790318160CF478CF1F910F9189
:10244000FF90EF90DF90CF90BF90AF909F908F90D4
:102450007F906F900895EF92FF920F931F937B01EF
:102460008C0181E1E816F1040105110560F482E0B8
:1024700061E00E94290794E0EE0CFF1C001F111F71
:102480009A95D1F724C081E8E816F10401051105F9
:1024900050F482E062E00E9429078E2D880F81505F
:1024A0000E9484072EC081E0E81684E0F80680E0F0
:1024B000080780E0180768F482E063E00E942907BB
:1024C00082E016950795F794E7948A95D1F78E2DBB
:1024D000E6CFC801B70128EE33E040E050E00E94AB
:1024E0001018CA01B9010E94BB040E945E11C80104
:1024F000B70128EE33E040E050E00E9410180E943F
:102500002B120E94A7071F910F91FF90EF90089543
:1025100020E030E04AE754E40E941F020E945E116E
:10252000089583E067E040E00E941D0E089583E077
:1025300067E041E00E941D0E089583E067E041E0FE
:102540000E94A80D81EE94E00E94D10883E067E02C
:1025500041E00E941D0E0E94DC080E94EC0881E907
:1025600092E10E94F90887E992E10E9403098DE057
:1025700064E00E940A0808950E949D128EE190E096
:102580000E94CB0888E692E420E931E0F901319716
:10259000F1F70197D9F70E9424090E94E0080E94F0
:1025A000F00888E893E120E931E0F9013197F1F78B
:1025B0000197D9F708950E949D1286E990E00E9444
:1025C000CB0888E692E420E931E0F9013197F1F790
:1025D0000197D9F70E9424090E94E0080E94F008A0
:1025E00088E893E120E931E0F9013197F1F70197AB
:1025F000D9F708950E949D128DE590E00E94CB08C6
:1026000088E692E420E931E0F9013197F1F701978A
:10261000D9F70E9424090E94E0080E94F00888E887
:1026200093E120E931E0F9013197F1F70197D9F70A
:1026300008958093AB056093AC0541E00E94A80D1E
:102640000895882331F08091AB056091AC0541E09D
:1026500005C08091AB056091AC0540E00E941D0E65
:1026600008951F93182F81E064E040E00E941D0E42
:10267000812F8F710E946F0B0E94560B182F81E0E3
:1026800064E041E00E941D0E812F1F9108950F9379
:102690001F93182F062F81E064E040E00E941D0E7A
:1026A0001F71812F80620E946F0B802F0E946F0B21
:1026B00081E064E041E00E941D0E1F910F9108959A
:1026C000FF920F931F93CF93DF93182F092FF62EAE
:1026D00087E00E94311386FFFBCF812F902F9C0152
:1026E000E90110E004C00E94560B89931F5F1F157B
:1026F000D0F387E060E40E944713DF91CF911F91F0
:102700000F91FF900895FF920F931F93CF93DF9344
:10271000182F092FF62E87E00E94311385FFFBCF7B
:10272000812F902F9C01E90110E004C089910E9443
:102730006F0B1F5F1F15D0F381E00E94211387E00C
:102740000E94311385FFFBCF87E060E20E944713B0
:1027500080E00E9421130E94351680E690E00E94DE
:102760003215DF91CF911F910F91FF90089580E076
:102770000E94211380E06FE00E94471386E067E02B
:102780000E94471387E060E70E94471381E00E94A0
:1027900021130E943516089580E00E94211380E0E5
:1027A0006EE00E94471386E067E00E94471387E0CF
:1027B00060E70E94471381E00E942113089581E0A1
:1027C00063E040E00E941D0E80EA9FE00197F1F770
:1027D000089581E063E041E00E941D0E80EA9FE0E1
:1027E0000197F1F708951F93182F81E061E041E010
:1027F0000E941D0E81E062E040E00E941D0E80916B
:10280000AD05882321F0813009F04EC045C0412F2D
:10281000441F4427441F80E067E00E941D0E412FA3
:10282000429546954695417080E066E00E941D0EF7
:10283000412F42954695417080E065E00E941D0E53
:10284000412F4295417080E064E00E941D0E0E947D
:10285000E9130E94DF13412F469546954695417036
:1028600080E067E00E941D0E412F4695469541701D
:1028700080E066E00E941D0E412F4695417080E089
:1028800065E00E941D0E117080E064E0412F0E94FF
:102890001D0E0E94E91306C00E94E91380E0612F1B
:1028A0000E946D0D0E94DF131F9108956F927F9219
:1028B0008F929F92AF92BF92CF92DF92EF92FF9250
:1028C0000F931F93DF93CF93CDB7DEB72E970FB63D
:1028D000F894DEBF0FBECDBF3B014C010E94490002
:1028E0005B016C010E94BB047B018C01A40193017C
:1028F0000E941903882309F046C0A114B104C10441
:10290000D10419F07601650106C080E30E94F3133B
:10291000CC24DD247601BB2495E0892E912C8C0EED
:102920009D1E1BC084010B0D111DC701B6012AE0BD
:1029300030E040E050E00E941018605DF8016083D4
:10294000C701B6012AE030E040E050E00E941018D4
:10295000C901DA016C017D01B394C114D104E10411
:10296000F10401F71B2D84E0E82EF12CEC0EFD1E86
:1029700007C0F701E10FF11D80810E94F313115090
:102980001123B9F75AC0C801B7010E945614C401F7
:10299000B301A80197010E94C1012CEA35EC47E27E
:1029A00057E30E94F2017B018C014E010894811CC7
:1029B000911C5401DD24C801B70120E030E040E261
:1029C00051E40E941F027B018C010E944900605D5E
:1029D000F5016083605370E080E090E00E94BB04EA
:1029E0009B01AC01C801B7010E94C1017B018C01B0
:1029F000D39420E030E040E050E00E944903882377
:102A000031F00894A11CB11CF4E0DF16A1F68EE2AF
:102A10000E94F31301C0DA94FE01ED0DF11D8081D7
:102A20008033C9F3840105C0F80181918F010E94B0
:102A3000F313802F88198D15B8F32E960FB6F894DE
:102A4000DEBF0FBECDBFCF91DF911F910F91FF90E1
:102A5000EF90DF90CF90BF90AF909F908F907F903E
:102A60006F9008951F93CF93DF93EC0110E003C0A4
:102A70000E94F3131F5FFE01E10FF11D8081882387
:102A8000B9F7DF91CF911F9108951F93182F81E01F
:102A900061E040E00E941D0E81E062E040E00E94A3
:102AA0001D0E8091AD05882321F0813009F057C0BB
:102AB0004EC0412F441F4427441F80E067E00E941E
:102AC0001D0E412F429546954695417080E066E087
:102AD0000E941D0E412F42954695417080E065E0B1
:102AE0000E941D0E412F4295417080E064E00E94DB
:102AF0001D0E0E94E9130E94DF1388EE93E020E987
:102B000031E0F9013197F1F70197D9F7412F469557
:102B100046954695417080E067E00E941D0E412F6A
:102B200046954695417080E066E00E941D0E412F5B
:102B30004695417080E065E00E941D0E117080E0B6
:102B400064E0412F0E941D0E0E94E91306C00E94FE
:102B5000E91380E0612F0E946D0D0E94DF1388EC65
:102B600090E00197F1F71F91089580680E94451544
:102B700085E08A95F1F70895882319F0813049F4AA
:102B800004C0862F0E94B5150895862F805C0E9490
:102B9000B51508958F7380640E94451585E08A9568
:102BA000F1F7089590E08170907054E0880F991FBC
:102BB0005A95E1F7806270E06170707033E0660FE3
:102BC000771F3A95E1F7862B50E041705070440F23
:102BD000551F440F551F842B0E94451585E08A958B
:102BE000F1F7089590E081709070F3E0880F991FDD
:102BF000FA95E1F7806170E061707070660F771F81
:102C0000660F771F862B0E94451585E08A95F1F7A0
:102C1000089590E081709070880F991F880F991F18
:102C20004170482B486070E061707070660F771FCC
:102C3000842F862B0E94451585E08A95F1F708952B
:102C40006170646090E081709070880F991F862B8E
:102C50000E94451585E08A95F1F7089582E00E946B
:102C6000451581E08A95F1F7089581E00E944515A8
:102C700008951F93182F8093AD0581E063E041E034
:102C80000E94A80D81E061E041E00E94A80D81E072
:102C900062E041E00E94A80D112319F01130D1F437
:102CA00015C080E064E041E00E94A80D80E065E08E
:102CB00041E00E94A80D80E066E041E00E94A80D7E
:102CC00080E067E041E00E94A80D04C080E06FEF63
:102CD0000E945C0D84EF91E020E931E0F901319729
:102CE000F1F70197D9F70E942E1681E060E00E946B
:102CF000201681E060E040E00E940916812F61E02B
:102D000040E00E94D2150E9435161F910895FC01E3
:102D1000362F862F6AE00E940418805D8083832FFF
:102D20000E940418905D91833AE33283842F0E94BD
:102D30000418805D8383842F0E940418905D94831F
:102D40003583822F0E940418805D8683822F0E9423
:102D50000418905D978310860895EF92FF920F9369
:102D60001F930E94B80CE090A101F090A201009185
:102D7000A3011091A4010894E11CF11C011D111D77
:102D8000E092A101F092A2010093A3011093A4018B
:102D9000C801B70120E13EE040E050E00E94101879
:102DA00020939E01C801B7012CE330E040E050E0E1
:102DB0000E941018CA01B9012CE330E040E050E055
:102DC0000E94101860939F01C801B7012CE330E006
:102DD00040E050E00E9410186093A00189E09DE35C
:102DE0000E94CB081F910F91FF90EF900895CF9212
:102DF000DF92FF920F931F93DF93CF93CDB7DEB790
:102E000029970FB6F894DEBF0FBECDBF83E060E018
:102E100040E00E94A80D83E063E040E00E94A80D1E
:102E20000E94B00C8DEA96E10E94F9080E94B80C4D
:102E300080E00E94391689E09DE30E94CB0884E07F
:102E400065E00E940A080E94DC0881E060E040E042
:102E50000E94A80D83E066E040E00E94A80D83E098
:102E600062E040E00E94A80D6E010894C11CD11CD4
:102E700083E060E00E94C80E882391F483E063E061
:102E80000E94C80E882361F480919C018130C1F5B5
:102E900083E061E040E00E941D0E10929C0130C072
:102EA00080919C01882361F583E061E041E00E940C
:102EB0001D0E0E94351681E080939C0180919D013A
:102EC0008F5F80939D018EEA95E060919E01409115
:102ED0009F012091A0010E9487168091A5019091E9
:102EE000A6016EEA75E048E050E00E94CC0C8091AB
:102EF000A5019091A60108969093A6018093A50143
:102F000081E060E00E94C80E813059F560E070E019
:102F100088E492E40E941C0F15C080E060E00E94EB
:102F2000BC1585E690E00E94321581E06DE00E94BC
:102F3000BC1560919D0170E080E090E00E94BB04B0
:102F40000E94561481E060E00E94C80E813029F38F
:102F500060E070E088E492E40E941C0F0E94351645
:102F600087CF83E066E00E94C80E8130A9F560E05B
:102F700070E088E492E40E941C0F25C00F2D10E041
:102F8000C80123E0880F991F2A95E1F7B60148E0B0
:102F900050E00E94F00CF0FC02C080E001C081E033
:102FA00060E00E94BC15C6010E94321560E070E02E
:102FB00080E89FE30E948B10F39480919D01F816A6
:102FC000E8F20E94351683E066E00E94C80E813068
:102FD00009F04ECFFF24F1CF83E062E00E94C80EDB
:102FE000813009F045CF0E94BC128DEA96E10E9423
:102FF000F9080E94DC0884E065E00E940A0880E08D
:1030000060E00E94BC1534CF991B79E004C0991F81
:10301000961708F0961B881F7A95C9F78095089532
:10302000A1E21A2EAA1BBB1BFD010DC0AA1FBB1FCC
:10303000EE1FFF1FA217B307E407F50720F0A21B3E
:10304000B30BE40BF50B661F771F881F991F1A94AB
:1030500069F760957095809590959B01AC01BD01D5
:10306000CF0108952F923F924F925F926F927F927D
:103070008F929F92AF92BF92CF92DF92EF92FF9288
:103080000F931F93CF93DF93CDB7DEB7CA1BDB0B34
:103090000FB6F894DEBF0FBECDBF09942A883988D9
:1030A00048885F846E847D848C849B84AA84B984E0
:1030B000C884DF80EE80FD800C811B81AA81B981EC
:1030C000CE0FD11D0FB6F894DEBF0FBECDBFED0100
:0630D0000895F894FFCF03
:1030D6004E524632004E6F206F662056696F6C6105
:1030E60074696F6E730000000000000000000001AC
:1030F6000202030303030404040404040404050590
:103106000505050505050505050505050505060667
:103116000606060606060606060606060606060649
:103126000606060606060606060606060606070737
:103136000707070707070707070707070707070719
:103146000707070707070707070707070707070709
:1031560007070707070707070707070707070707F9
:1031660007070707070707070707070707070808E7
:1031760008080808080808080808080808080808C9
:1031860008080808080808080808080808080808B9
:1031960008080808080808080808080808080808A9
:1031A6000808080808080808080808080808080899
:1031B6000808080808080808080808080808080889
:1031C6000808080808080808080808080808080879
:1031D6000808080808080808080808080808080869
:0E31E60008080808080808080808080808086B
:00000001FF
